{
  "contractName": "ChainList",
  "abi": [
    {
      "constant": true,
      "inputs": [
        {
          "name": "",
          "type": "uint256"
        }
      ],
      "name": "articles",
      "outputs": [
        {
          "name": "id",
          "type": "uint256"
        },
        {
          "name": "seller",
          "type": "address"
        },
        {
          "name": "buyer",
          "type": "address"
        },
        {
          "name": "name",
          "type": "string"
        },
        {
          "name": "description",
          "type": "string"
        },
        {
          "name": "price",
          "type": "uint256"
        }
      ],
      "payable": false,
      "stateMutability": "view",
      "type": "function"
    },
    {
      "anonymous": false,
      "inputs": [
        {
          "indexed": true,
          "name": "_id",
          "type": "uint256"
        },
        {
          "indexed": true,
          "name": "_seller",
          "type": "address"
        },
        {
          "indexed": false,
          "name": "_name",
          "type": "string"
        },
        {
          "indexed": false,
          "name": "_price",
          "type": "uint256"
        }
      ],
      "name": "LogSellArticle",
      "type": "event"
    },
    {
      "anonymous": false,
      "inputs": [
        {
          "indexed": true,
          "name": "_id",
          "type": "uint256"
        },
        {
          "indexed": true,
          "name": "_seller",
          "type": "address"
        },
        {
          "indexed": true,
          "name": "_buyer",
          "type": "address"
        },
        {
          "indexed": false,
          "name": "_name",
          "type": "string"
        },
        {
          "indexed": false,
          "name": "_price",
          "type": "uint256"
        }
      ],
      "name": "LogBuyArticle",
      "type": "event"
    },
    {
      "constant": false,
      "inputs": [
        {
          "name": "_name",
          "type": "string"
        },
        {
          "name": "_description",
          "type": "string"
        },
        {
          "name": "_price",
          "type": "uint256"
        }
      ],
      "name": "sellArticle",
      "outputs": [],
      "payable": false,
      "stateMutability": "nonpayable",
      "type": "function"
    },
    {
      "constant": true,
      "inputs": [],
      "name": "getArticleCount",
      "outputs": [
        {
          "name": "",
          "type": "uint256"
        }
      ],
      "payable": false,
      "stateMutability": "view",
      "type": "function"
    },
    {
      "constant": true,
      "inputs": [],
      "name": "getArticlesForSale",
      "outputs": [
        {
          "name": "",
          "type": "uint256[]"
        }
      ],
      "payable": false,
      "stateMutability": "view",
      "type": "function"
    },
    {
      "constant": false,
      "inputs": [
        {
          "name": "_id",
          "type": "uint256"
        }
      ],
      "name": "buyArticle",
      "outputs": [],
      "payable": true,
      "stateMutability": "payable",
      "type": "function"
    },
    {
      "constant": false,
      "inputs": [],
      "name": "kill",
      "outputs": [],
      "payable": false,
      "stateMutability": "nonpayable",
      "type": "function"
    }
  ],
  "bytecode": "0x6060604052336000806101000a81548173ffffffffffffffffffffffffffffffffffffffff021916908373ffffffffffffffffffffffffffffffffffffffff160217905550610c14806100536000396000f300606060405260043610610078576000357c0100000000000000000000000000000000000000000000000000000000900463ffffffff1680631cc4baa81461007d57806341c0e1b5146100955780637f6be3da146100aa578063d260951514610114578063e899d5ff146101bd578063edcfafe6146101e6575b600080fd5b610093600480803590602001909190505061039c565b005b34156100a057600080fd5b6100a8610684565b005b34156100b557600080fd5b6100bd610719565b6040518080602001828103825283818151815260200191508051906020019060200280838360005b838110156101005780820151818401526020810190506100e5565b505050509050019250505060405180910390f35b341561011f57600080fd5b6101bb600480803590602001908201803590602001908080601f0160208091040260200160405190810160405280939291908181526020018383808284378201915050505050509190803590602001908201803590602001908080601f01602080910402602001604051908101604052809392919081815260200183838082843782019150505050505091908035906020019091905050610885565b005b34156101c857600080fd5b6101d0610aab565b6040518082815260200191505060405180910390f35b34156101f157600080fd5b6102076004808035906020019091905050610ab5565b604051808781526020018673ffffffffffffffffffffffffffffffffffffffff1673ffffffffffffffffffffffffffffffffffffffff1681526020018573ffffffffffffffffffffffffffffffffffffffff1673ffffffffffffffffffffffffffffffffffffffff16815260200180602001806020018481526020018381038352868181546001816001161561010002031660029004815260200191508054600181600116156101000203166002900480156103045780601f106102d957610100808354040283529160200191610304565b820191906000526020600020905b8154815290600101906020018083116102e757829003601f168201915b50508381038252858181546001816001161561010002031660029004815260200191508054600181600116156101000203166002900480156103875780601f1061035c57610100808354040283529160200191610387565b820191906000526020600020905b81548152906001019060200180831161036a57829003601f168201915b50509850505050505050505060405180910390f35b6000806002541115156103ae57600080fd5b6000821180156103c057506002548211155b15156103cb57600080fd5b60016000838152602001908152602001600020905060008160020160009054906101000a900473ffffffffffffffffffffffffffffffffffffffff1673ffffffffffffffffffffffffffffffffffffffff1614151561042957600080fd5b8060010160009054906101000a900473ffffffffffffffffffffffffffffffffffffffff1673ffffffffffffffffffffffffffffffffffffffff163373ffffffffffffffffffffffffffffffffffffffff161415151561048857600080fd5b80600501543414151561049a57600080fd5b338160020160006101000a81548173ffffffffffffffffffffffffffffffffffffffff021916908373ffffffffffffffffffffffffffffffffffffffff1602179055508060010160009054906101000a900473ffffffffffffffffffffffffffffffffffffffff1673ffffffffffffffffffffffffffffffffffffffff166108fc349081150290604051600060405180830381858888f19350505050151561054157600080fd5b8060020160009054906101000a900473ffffffffffffffffffffffffffffffffffffffff1673ffffffffffffffffffffffffffffffffffffffff168160010160009054906101000a900473ffffffffffffffffffffffffffffffffffffffff1673ffffffffffffffffffffffffffffffffffffffff16837f5d28bc06e6f0c45405abfe77bd77236c767f9bd9d044ae2d954a415a2b4823e084600301856005015460405180806020018381526020018281038252848181546001816001161561010002031660029004815260200191508054600181600116156101000203166002900480156106715780601f1061064657610100808354040283529160200191610671565b820191906000526020600020905b81548152906001019060200180831161065457829003601f168201915b5050935050505060405180910390a45050565b6000809054906101000a900473ffffffffffffffffffffffffffffffffffffffff1673ffffffffffffffffffffffffffffffffffffffff163373ffffffffffffffffffffffffffffffffffffffff161415156106df57600080fd5b6000809054906101000a900473ffffffffffffffffffffffffffffffffffffffff1673ffffffffffffffffffffffffffffffffffffffff16ff5b610721610b2f565b610729610b2f565b600080610734610b2f565b60006002546040518059106107465750595b9080825280602002602001820160405250945060009350600192505b6002548311151561080b5760006001600085815260200190815260200160002060020160009054906101000a900473ffffffffffffffffffffffffffffffffffffffff1673ffffffffffffffffffffffffffffffffffffffff1614156107fe57600160008481526020019081526020016000206000015485858151811015156107e757fe5b906020019060200201818152505083806001019450505b8280600101935050610762565b836040518059106108195750595b90808252806020026020018201604052509150600090505b8381101561087a57848181518110151561084757fe5b90602001906020020151828281518110151561085f57fe5b90602001906020020181815250508080600101915050610831565b819550505050505090565b60026000815480929190600101919050555060c06040519081016040528060025481526020013373ffffffffffffffffffffffffffffffffffffffff168152602001600073ffffffffffffffffffffffffffffffffffffffff168152602001848152602001838152602001828152506001600060025481526020019081526020016000206000820151816000015560208201518160010160006101000a81548173ffffffffffffffffffffffffffffffffffffffff021916908373ffffffffffffffffffffffffffffffffffffffff16021790555060408201518160020160006101000a81548173ffffffffffffffffffffffffffffffffffffffff021916908373ffffffffffffffffffffffffffffffffffffffff16021790555060608201518160030190805190602001906109bd929190610b43565b5060808201518160040190805190602001906109da929190610b43565b5060a082015181600501559050503373ffffffffffffffffffffffffffffffffffffffff166002547fe2ebb0c522a8b90a93f45a5dfd3c0e0516b81519fdf199efe51c474642fe8cec85846040518080602001838152602001828103825284818151815260200191508051906020019080838360005b83811015610a6b578082015181840152602081019050610a50565b50505050905090810190601f168015610a985780820380516001836020036101000a031916815260200191505b50935050505060405180910390a3505050565b6000600254905090565b60016020528060005260406000206000915090508060000154908060010160009054906101000a900473ffffffffffffffffffffffffffffffffffffffff16908060020160009054906101000a900473ffffffffffffffffffffffffffffffffffffffff1690806003019080600401908060050154905086565b602060405190810160405280600081525090565b828054600181600116156101000203166002900490600052602060002090601f016020900481019282601f10610b8457805160ff1916838001178555610bb2565b82800160010185558215610bb2579182015b82811115610bb1578251825591602001919060010190610b96565b5b509050610bbf9190610bc3565b5090565b610be591905b80821115610be1576000816000905550600101610bc9565b5090565b905600a165627a7a72305820d56820a860998b346c41dfc69bc07c69e23a09f1f30eeb2a605a182699443dce0029",
  "source": "pragma solidity ^0.4.18;\n\nimport \"./Ownable.sol\";\n\ncontract ChainList is Ownable {\n  // custom types \n  struct Article {\n    uint id;\n    address seller;\n    address buyer;\n    string name;\n    string description;\n    uint256 price;    \n  }\n\n  // state variables \n  mapping (uint => Article) public articles;\n  uint articleCounter;\n\n  // events \n  event LogSellArticle(\n    uint indexed _id,\n    address indexed _seller,\n    string _name,\n    uint256 _price\n    );\n    \n  event LogBuyArticle(\n    uint indexed _id,\n    address indexed _seller,\n    address indexed _buyer,\n    string _name,\n    uint256 _price\n    );\n  \n  // sell an article \n  function sellArticle(string _name, string _description, uint256 _price) public {\n    // increment counter \n    articleCounter++;\n    // instantiate and store new Article\n    articles[articleCounter] = Article(\n      articleCounter,\n      msg.sender,\n      0x0,\n      _name,\n      _description,\n      _price\n    );\n    \n    LogSellArticle(articleCounter, msg.sender, _name, _price);\n  }\n  \n  // fetch number of articles \n  function getArticleCount() public view returns(uint) {\n    return articleCounter;\n  }\n  \n  // fetch ids of available articles \n  function getArticlesForSale() public view returns(uint []) {\n    // prepare output array\n    uint[] memory articleIds = new uint[](articleCounter);\n    // initialize index variable\n    uint numberOfArticlesForSale = 0;    \n    // iterate over articles \n    for (uint i = 1; i <= articleCounter; i++) {\n      // keep id if article has not been bought\n      if (articles[i].buyer == 0x0) {\n        articleIds[numberOfArticlesForSale] = articles[i].id;\n        numberOfArticlesForSale++;\n      }\n    }\n    \n    // copy id array into for sale array \n    uint[] memory forSale = new uint[](numberOfArticlesForSale);\n    for (uint j = 0; j < numberOfArticlesForSale; j++) {\n      forSale[j] = articleIds[j];\n    }\n    \n    return forSale;\n  }\n  \n  // buy an article \n  function buyArticle(uint _id) payable public {\n    // check there is an article for sale\n    require(articleCounter > 0);\n    // check that id is within parameters \n    require(_id > 0 && _id <= articleCounter);\n    // retrieve article from mapping \n    Article storage article = articles[_id];    \n    // check article still available\n    require(article.buyer == 0x0);\n    // check buyer is not seller \n    require(msg.sender != article.seller);\n    // check value sent equals price \n    require(msg.value == article.price);\n    \n    // track buyer's info\n    article.buyer = msg.sender;\n    \n    // transfer value from buyer to seller \n    article.seller.transfer(msg.value);\n    \n    // trigger the event \n    LogBuyArticle(\n      _id,\n      article.seller, \n      article.buyer, \n      article.name, \n      article.price\n    );\n  }\n  \n  // Self-destruct \n  function kill() public onlyOwner {\n    selfdestruct(owner);\n  }\n}\n",
  "sourcePath": "D:\\coDe\\arbogast-ethereum\\chainlist\\contracts\\ChainList.sol",
  "compiler": {
    "name": "solc",
    "version": "0.4.19+commit.c4cbbb05.Emscripten.clang"
  },
  "schemaVersion": "2.0.0",
  "updatedAt": "2018-03-23T18:22:18.861Z"
}